:2000000000800020C9400000B1400000B14000000000000000000000000000000000000055
:20002000000000000000000000000000B14000000000000000000000B14000001D41000080
:20004000B1400000B1400000B1400000B1400000B1400000B1400000B1400000B540000014
:20006000B1400000F9050000B140000021670000B1400000B140000011670000B1400000CD
:20008000B1400000B1400000B1400000B1400000E9380000B1400000B1400000B1400000A8
:2000A000B1400000B1400000B1400000B14000000000000010B5064C2378002B07D1054B77
:2000C000002B02D0044800E000BF0123237010BDB002002000000000D0BD0000084B10B53D
:2000E000002B03D00749084800E000BF07480368002B00D110BD064B002BFBD09847F9E73A
:2001000000000000B4020020D0BD0000A002002000000000024B0180827043607047C0469A
:20012000CC02002070B5802405008901E4000C438078002106F0ACF8210A686800F07EF832
:20014000E1B2686800F07AF80F23FF2618403440000204430021686800F070F8B4430443E7
:200160000121A87806F094F8A0B270BD437A002B04D18372C372C36001334372704730B5AD
:20018000040085B002AD00680291039204F0C3FA6B79227AE17900932068002304F020FC0E
:2001A0002979029A206804F08BFA206804F0AAFA05B030BD70B518260400FFF7D7FF3300D8
:2001C000082120790D4D4343EB18595606F08CF833000821A0794343EB18595606F084F832
:2001E000082160794643AD19695606F07DF8044B200006CBFFF7C3FF70BDC04640B7000062
:20020000EC02002007B5837A00910192002B07D09A070AD5EFF3108253425341C37272B677
:200220000099019AFFF7ABFF07BDDB07F8D58389014A9360F4E7C0460018004010B50068C7
:2002400004F072FA10BD00000F4B104A10491A6000225A711A710F4B0F4819600A21197193
:20026000013999710139597105395A72DA7119720A4B18601D2018710238987101385A727B
:200280005871DA7119727047EC02002000093D0008150020CC0200200C150020DC0200204A
:2002A00000207047F8B505000E0017000024BC4208D02B68315D1B6828009847002801D0F2
:2002C0000134F4E72000F8BD7047C26D836D9A4203D0C36DC018007E704701204042FBE7F2
:2002E000836DC06D181A00D540307047F7B50193FA230025402604009B008360104B0F00DF
:20030000083345600360290000921830320008F01EFC2000A5653200E5652900603008F0FC
:2003200016FC2300A0331D605D606B461B78276123756B461B79A57520006375FEBDC046FF
:200340002CAF000070B5060018250C49006904F06BFB306904F000FA2B000821307D084C66
:200360004343E318595605F0BFFF0821707D45436419615605F0B8FF70BDC046A0860100C2
:2003800040B7000003000200A83319700023A032136053600133837570473F22036C0133FB
:2003A0001340426C9A4202D0026C815403647047F7B500250400170001932800AA4225D0A4
:2003C000A5650122E565206904F008FAA8421CD026001836206904F06FFA01350100300090
:2003E000FFF7DBFF2069AF4206D004F0D1F90221206904F0D7F9EDE704F0C1F9019B002B66
:2004000003D00321206904F0CDF9E8B2FEBD10B50123FFF7CDFF10BD002270B5837D9342B9
:200420000ED0030004003F25A0331B68A434246801332B40A34203D06030FFF7AEFF01220C
:20044000100070BD426C036C9A4208D03F21436CC25C436C01330B404364100070470120A4
:200460004042FBE70300002270B5A833827505000E000069197804F0B1F9002806D103212E
:20048000286904F08FF90224200070BD2B002A002800A033A4321B68146860301C1B00D51B
:2004A0004034002C0ED02C69FFF7CCFFC1B2200004F0C0F90028E9D10321286904F072F932
:2004C0000324E1E7002EDFD00321286904F06AF9DAE710B50121FFF7C5FF10BD10B5183008
:2004E000FFF7B0FF10BD70B50400006904F0C2F9002827D0206904F0CBF900280ED1206959
:2005000004F0D0F9002851D0206904F0C6F900284CD0206904F0CBF9002847D1206904F057
:2005200037F90321206904F03DF92300B0331D68002D04D0236820001B699847A847002308
:20054000A365E36570BD206904F022F92069032104F028F9206904F0AAF90028F2D0220098
:200560000023A032136053600133A375AC342368002BE7D09847E5E73F21A36DE26D013329
:200580000B402069934206D104F0F9F80321206904F008F9D6E704F08FF9010020001830B2
:2005A000FFF7FBFE206904F0F3F8EFE7206904F079F90028C7D1206904F065F90028C1D0CB
:2005C000206904F074F90028D6D023002200A033A4321B6812689B1A00D54033FF21002B30
:2005E00004D020006030FFF72DFFC1B2206904F033F9A075A6E7000010B50248FFF773FF20
:2006000010BDC046F402002010B50C230B2202490248FFF76BFE10BD04150020F4020020C0
:2006200013B50121072005F0E7FD0121062005F0E3FD0121072005F02BFE0121062005F00F
:2006400027FE084B6A4600930023074C537120001371FFF7AFFD0099019A2000FFF7D2FD46
:2006600013BDC046006A1800CC020020F8B50021072005F00DFE0121062005F009FEAB212F
:200680005448FFF7DBFD0121072005F001FE524C524E25000821C23530002F78FFF742FD24
:2006A0007F00E7197880092130002F78FFF73AFD06377F00E71978800A2130002F78FFF7E9
:2006C00031FD0C377F00E71978800B2130002F78FFF728FD12377F00E71978800C213000F7
:2006E0002F78FFF71FFD18377F00E71978800D2130002F78FFF716FD1E377F00E7197880A1
:200700000E2130002F78FFF70DFD24377F00E71978800F2130002F78FFF704FD2A377F0023
:20072000E71978800021062005F0B2FD0121072005F0AEFDAB212748FFF780FD01210620F7
:2007400005F0A6FD264F082138002E78FFF7EAFC30367600A6197080092138002E78FFF720
:20076000E1FC36367600A61970800A2138002E78FFF7D8FC3C367600A61970800B2138003D
:200780002E78FFF7CFFC42367600A61970802B781A0042325200A21853800133DBB2052B54
:2007A00015D005262B70A51CC234A54211D06B8828883100C018AB88C018EB88C0182B8959
:2007C000C01880B206F0B2F868810C35EDE70023E7E7F8BDCC020020B8030020A803002037
:2007E000B00300200C234343074810B5C018808906F06EFA08F018F8044A054B06F0BEFDC7
:2008000008F064F810BDC046B80300203333333333535D4010B50B4B7833188806F058FA39
:2008200008F002F80022084B07F05CFC074A084B06F0A4FD074A084B07F0D4F908F046F829
:2008400010BDC046B803002000B87E409A99999999999940A4703D0AD7A30A4010B5094BCC
:200860009033188806F034FA07F0DEFF064A074B06F084FD064A074B07F0B4F908F026F8A8
:2008800010BDC046B80300209A999999999999405EBA490C02AB1A4010B50B4B8433188854
:2008A00006F016FA07F0C0FF084A094B07F01AFC064A084B06F062FD0022074B07F092F9DB
:2008C00008F004F810BDC046B80300209A99999999998940999999400000594010B5FFF7B7
:2008E0009FFE0022024B1A70C2331A7010BDC046B8030020F7B5424D2B78012B11D0002B1F
:2009000002D0022B10D0F7BD01232B70FFF7AEFEFFF7ACFEFFF7AAFEFFF7A8FEFFF7A6FE6F
:20092000F1E702232B70EEE702F0BEFF002801D0FFF79CFE02F0B2FF0028E4D02B00C33372
:2009400019780029DFD02F4A13780133DBB28B4201DC1370D7E701232B4C13702B490A22C0
:20096000200003F004FD00270C37294E782F18D0E85B06F0ADF907F057FF264A264B06F0F0
:20098000FDFC07F0A3FF07F04FFF0B00022102000091200003F0C8FD3100200003F06DFC3A
:2009A000E2E7FFF737FF07F03FFF022502000B000095200003F0B8FD3100200003F05DFCDF
:2009C000FFF74CFF07F030FF009502000B00200003F0AAFD3100200003F04FFCFFF75CFF74
:2009E00007F022FF009502000B00200003F09CFD3100200003F041FC200003F047FC82E751
:200A0000B80300207C040020B40D00204941000050AF00003333333333535D400122034B91
:200A2000C3331870024B1A707047C046B80300207C04002010B5064C072221000548FFF785
:200A400069FB062221000448FFF764FB10BDC046C4090000A8030020B003002010B50368DA
:200A6000C9B21B68984710BD012110B5080005F0C3FB0021012005F00BFCFA2003F062FB82
:200A80000121080005F004FCFA2003F05BFB10BD10B5384C2000FFF755FC20002021FFF700
:200AA00071FC00212000FFF7D9FF81212000FFF7D5FF2000FFF70DFD012003F043FB20009C
:200AC0002021FFF75FFC01212000FFF7C7FF00212000FFF7C3FF2000FFF7FBFC012003F06C
:200AE00031FB20002121FFF74DFC00212000FFF7B5FFFF212000FFF7B1FF2000FFF7E9FC5D
:200B0000012003F01FFB20002121FFF73BFC01212000FFF7A3FFFF212000FFF79FFF20004A
:200B2000FFF7D7FC012003F00DFB20002221FFF729FC00212000FFF791FF00212000FFF754
:200B40008DFF2000FFF7C5FC012003F0FBFA20002221FFF717FC01212000FFF77FFF902156
:200B60002000FFF77BFF2000FFF7B3FC012003F0E9FA10BDF4020020014B1818C07B7047D8
:200B80008A0400200022034B5A869A8636331A707047C0468A04002000B5104B032818D8AE
:200BA00005F0BAFE02070D130322597B0A435A7300BD01215A7B8A4311000222F6E7022196
:200BC0005A7B8A4311000122F0E703215A7B8A43EDE703215A7B0A40E9E7C0468A04002007
:200BE000014B3833187070478A040020014B3733187070478A040020614BF0B51A003932D8
:200C00001078002820D120219A7A8A43110010220A439A721A0038321078002847D1022106
:200C20009A7A8A43110001220A439A721A0037321078002800D06DE008219A7A8A431100DB
:200C400004220A439A72F0BD632802D1997A3022DEE71D003C352A7882421ADA1E003F3665
:200C600031780131C9B231709C7A022905D810229443921814439C72CCE730273C439C72B0
:200C80000629C7D1002101322A70D2B231709042C0DC19003F310A780132D2B20F2A01D040
:200CA0000A70B7E700220A7019003C31F8E7632802D1997A0322B7E71D003B352A788242F4
:200CC0001ADA1E003E3631780131C9B231709C7A022905D801229443921814439C72A5E7E4
:200CE00003273C439C720629A0D1002101322A70D2B23170904299DC19003E310A78013206
:200D0000D2B20F2A01D00A7090E700220A7019003B31F8E7632802D1997A0C2291E71D0020
:200D20003A352A7882421CDA1E003D3631780131C9B231709C7A022905D80422944392189B
:200D400014439C727FE70C273C439C72062900D079E7002101322A70D2B23170904200DDE7
:200D600071E719003D310A780132D2B20F2A01D00A7068E700223A330A701A7063E7C046A5
:200D80008A040020054B4022997A002802D00A439A72704791439972FBE7C0468A04002061
:200DA000064B002805D08022997A52420A439A7270477F219A7A0A40F9E7C0468A040020FA
:200DC000054B2022997B002802D04A409A73704791439973FBE7C0468A04002070B5002565
:200DE000144C2570FFF740FEFFF752FE2B00DAB2112A05D8E218D573203215700133F6E78B
:200E000000221300611C062A04D801320B70D2B20131F8E722003A32137022003B321370AE
:200E200022003C32137022004032137001234334237070BD8A040020034BC0B244331870C0
:200E4000024B18707047C0468A04002088040020014B0833D88F70478A040020014B0833CC
:200E6000D88770478A04002007B5002107480B000A00009103F0A4F9054B01211A0043324B
:200E80001170012208335242DA8707BD800400208A04002070B50E001500084C01002000AB
:200EA000FFF770FA31002000FFF7B6FA29002000FFF7B2FA2000FFF70CFB70BDF402002090
:200EC000F0B5684D85B028002021FFF75BFA12212800FFF7C3FD2800FFF7FBFA0122202147
:200EE0002800FFF794FA2800FFF7F8FA5E4C2121A0702800FFF746FA12212800FFF7AEFDE0
:200F00002800FFF7E6FA012221212800FFF77FFA2800FFF7E3FA212120712800FFF732FABF
:200F200013212800FFF79AFD2800FFF7D2FA012221212800FFF76BFA2800FFF7CFFA2221CC
:200F400060712800FFF71EFA13212800FFF786FD2800FFF7BEFA012222212800FFF757FA0A
:200F60002800FFF7BBFAA57801222B00E071E07F1340984207D1210030310B789B18DBB239
:200F8000052B2BD80B70237900200293637907000393230036331E78A38E01220093638EDF
:200FA00001909C46230004000F33082846D002991D78014111408D4205D05D7C0135EDB2FA
:200FC000052D17D85D7403991D7A014111408D421FD13100013001330E00E6E700230B708B
:200FE0001300AB43E3770028CDD12300363362861A70C8E7002519705D74002904D00C009B
:201000000F000E009446DEE70192009217001600D9E75D7E0135EDB2052D01D85D76D8E7B5
:20102000002519725D76002903D00C000F009446D0E70192009217001100CBE7002F02D085
:20104000094B36331E70002C02D06246064B5A86019B002B03D06A46034B12889A8605B067
:20106000F0BDC046F40200208A04002070B53D4C2578012D17D0002D02D0022D16D070BD58
:201080000123A27A23703F3313432800A372FFF787FE220063233832137022003934373270
:2010A00013702570EBE702232370E8E702F0F6FB002820D0230043331878FFF781FE230003
:2010C00044331B78002B16D0274A1578002D46D1264E27493000137003F0CFF80135112DEE
:2010E00006D06319997B0A22300003F040F9F5E7300003F0CBF802F0D7FB0028BFD0FFF7CF
:20110000DFFE00231B4D2B70638E002B03D001232B7001F0B1F9A38E002B04D02B7802337B
:201120002B7001F0A9F92878FFF736FDFFF764FD627A12212020FFF7ADFEA27A13212020E1
:20114000FFF7A8FE627B12212220FFF7A3FEA27B13212220FFF79EFEFFF714FD8FE7013D2A
:201160001570C8E78A04002088040020B40D0020CFB00000D20400200022014B1A707047DC
:20118000D3040020084B10B51A78012A07D0002A02D0022A05D010BD01221A70FBE702222F
:2011A000FBE702F081FBF6E7D304002013B56B460268D9710733546819000122A04716BDF2
:2011C00013B56B46DC1D036801225B6A21009847012801D1207816BD01204042FBE701203E
:2011E00040427047036910B518680368DB68984710BD036810B51B690400984701230028C8
:2012000000D1237E180010BD036810B5DB6A9847431E9841C0B210BD70B505000C004069CB
:2012200003681B6898472869210003681B68984770BD70B50500006903685B699847040090
:20124000431C04D06869E1B203681B689847200070BD10B5006903681B69984710BD10B54F
:20126000006903689B69984710BD10B500690368DB68984710BD70B505000C00081E07D02F
:2012800008F002FA2B6802005B6821002800984770BD0000F0B50C000600170085B0194948
:2012A00001A805F0D5F8102101A805F0A8F8217901A805F021F9144D01A8290005F005F9DC
:2012C000617901A805F018F9290001A805F0FDF8A17901A805F010F9290001A805F0F5F854
:2012E000E17901A805F008F933683A001B6A019930009847040001A805F062F8200005B021
:20130000F0BDC0463EB50000D4B50000F8B504000F0002F011FF050002F00EFF0D4E401B22
:20132000B04212D802F008FF401BB04205D8206803681B699847002809D0206803685B69A0
:201340009847B842E8D1012000E00020F8BD02F0F9FEE7E7E7030000F0B589B0039105000D
:20136000402110001400019305F049F802F0E4FE0290002002F0E6FE286803681B69984764
:20138000002800DCC0E0286803685B6998470028F2DBC1B2200005F0A5F8019B002B40D119
:2013A0000E9B002B4FD10F9B002B5CD1109B002B6AD1119B002B00D077E05C4905A805F0E1
:2013C00047F805A9200005F0A7F8070005A804F0F7FF002F00D079E0554905A805F038F806
:2013E00005A9200005F098F8060005A804F0E8FF002EC1D00A22296805A803F005FC05A842
:2014000005F07EF9060005A804F0DAFF042E00D975E0B600AE197368002B00D16FE01F7648
:201420006DE0019905A805F013F805A9200005F073F8060005A804F0C3FF002EB0D00120B2
:20144000C0B209B0F0BD0E9905A805F001F805A9200005F061F8060005A804F0B1FF002ED1
:20146000A1D00220ECE70F9905A804F0F1FF05A9200005F051F8060005A804F0A1FF002E4C
:2014800000D193E70320DBE7109905A804F0E0FF05A9200005F040F8060005A804F090FFC2
:2014A000002E00D185E70420CAE7119905A804F0CFFF05A9200005F02FF8060005A804F042
:2014C0007FFF002E00D178E70520B9E729682C2205A803F099FB05A805F012F9060005A8F8
:2014E00004F06EFF0A212800FFF710FF042E06D8B600AE197368002B01D001225A760D4986
:20150000200004F0B8FF37E702F016FE029BC01A039B984200D22CE7200005F0C8F80549E5
:20152000200004F0A8FF00208AE7C04672B500007DB500003EB50000F0B516001F0004002F
:201540000D0089B00B4905A804F082FF109B05AA03930F9B290002930E9B00970193200083
:201560003300FFF7F9FE040005A804F029FF200009B0F0BD3EB500001FB5009313000A0081
:20158000FA21079C89000294069C0194FFF7D4FF04B010BD73B50400002002F0D3FD256951
:2015A000267D1249286802F068FE1149286802F064FE0A223100286802F0F3FE0D49286851
:2015C00002F05BFE286800250368DB689847002002F0B8FD257601950095074B074A0849FD
:2015E0002069FFF7C9FF2566E56573BDB5B50000B8B500003CB500001DB5000030B5000020
:201600002BB5000070B501251B4C257002F066F929001C2004F0F0FD29001F2004F0ECFDC7
:201620002900202004F0E8FD0021202004F030FE29001F2004F02CFE00211C2004F028FEE8
:201640002800FFF79FFBBC2302225B00E25223001C329E331A8023000F3AA4331A80230064
:20166000E1229C3312011A8023007822A2331A800022024BE25270BDDC0400207603000076
:20168000F7B50700C82015000E00019302F05AFD164C174B0199E752ED23DB00E01807F03E
:2016A000DAFF144B0899E01807F0D5FF0123124A2900A354013AA354DF239B00E6520023C4
:2016C0000E4A0F48A3520232A3540E4AA3540E4AA354023AA3540D4AA3540D4AA35402F0DC
:2016E000F1FD29000B4802F0EDFDF7BDDC0400207A0300007C070000790300007E030000F3
:20170000B40D0020910700009207000093070000940700004814002037B55D4CA378052B26
:2017200000D17AE01ED8022B47D00DD8002B39D0012B40D00023A370E3700733637002F067
:20174000CDF8082323705BE0032B4DD0042BF1D1DE25AD00605D002859D14E4B4E4A00930C
:201760004E4B33E0082B00D17DE00ED8062B64D0072BDFD1DE25AD00605D002800D06CE07E
:20178000444B474A0093454B20E0092BD2D1DE25AD00605D002800D074E03E4B414A0093CF
:2017A000414B13E04149424802F078FD02F096F80123A37024E00223FBE7DE25AD00605D00
:2017C000002805D1334B3B4A00933B4B0A2115E03A4AA25C002A05D002F080F80023635509
:2017E0000333E6E76255E4E7DE25AD00605D002807D1284B0093324B1421324AFFF740FF8E
:201800003EBD02F06BF8002363550433D1E702F065F8002363550533CBE7DE25AD00605D2D
:20182000002804D11B4B284A00931C4BCEE702F055F8002363550633BBE7DE25AD00605DC2
:20184000002804D1134B214A0093144BBEE702F045F8002363550733ABE702F03FF8002309
:2018600063550833A5E7DE25AD00605D002803D1084B00930C4BBFE702F030F800236355A8
:20188000093396E702F02AF800236355633390E7DC040020D8B10000F5B10000F2B10000C1
:2018A0003EB2000053B200004BB20000ABB10000B40D0020CEB10000C4B10000930700006B
:2018C000DEB10000E5B100001BB2000031B2000073B5DE25154CAD00605D002811D1144BD4
:2018E000144A00930A21144BFFF7CAFE01F0E8FF3C2805DD1149124802F0BFFC0D2323706D
:2019000076BD104BE65C104B002E09D001220020E254FFF76BF90023635563782370E5E7AD
:201920000120E654FFF762F96655DFE7DC040020D8B100006AB100005FB1000073B10000A2
:20194000B40D00209107000073030000DE23F7B51F4C9B00E05C002807D11E4B1E4A009345
:201960000A211E4BFFF78CFEFEBD00221C4B1100E55A94461300AB421DDAE027E018BF0030
:20198000C0190078222803D101320133D2B2DBB2012A0DD1E026E718B600BF1966466018A0
:2019A0003F780131EC30C9B207706018EC3006700133DBB2DFE721000A48EC3102F082FC9F
:2019C000DE2300229B00E2540C232370CCE7C046DC040020F2B10000EBB00000E6B00000C4
:2019E0007E030000B40D0020F7B5294C227A002A04D00021637821722370FEBDDE239B0051
:201A0000E35C002B3AD0234B1100E05A160013000127834226DAE518AC46E025AD00AC44F2
:201A200065462D783A2D18D1002A16D102339BB2E025E218AD005219127894466546022229
:201A40001F2D0CDD654662180131FF3289B295716218FF3296713A0001E0012AE8D00133A4
:201A60009BB2D6E7A11DFF310B4802F02BFCDE2300229B00E25463232372BEE7074B084AAA
:201A800000931E21074B0120FFF7FAFDB5E7C046DC0400207E030000B40D0020D8B1000087
:201AA00049B1000042B1000010B501211C2004F0A3FB01211F2004F09FFB0121202004F03F
:201AC0009BFB0021202004F0E3FB01211F2004F0DFFB00211C2004F0DBFB0120FFF752F985
:201AE00010BD000013B51D4C2379012B0DD0002B04D000210422A171227016BD18491948C4
:201B000002F0CCFB63232371F7E7DE239B00E05C002807D1144B154A00930A21144BFFF76B
:201B2000AFFDEAE7134AA25C002A03D00022E25463232371104BE35C002B05D0DE230022A1
:201B40009B00E25463232371F223DB00E35C002BD3D0DE2300229B00E254D3E7DC040020EF
:201B6000A8B40000B40D0020D8B10000B7B40000F2B100009307000092070000F7B54A4C1C
:201B8000A579032D49D00CD8DE26B600012D26D01AD9A05D002838D1444B454A0093454BBA
:201BA00024E0052D00D16DE056D300220923A270237001F085FE3C2805DD3F493F4802F0FA
:201BC0005CFB0D232370FEBD3D493C4802F066FB01F084FE0123A3710023A355E9E7A05D40
:201BE000002807D1314B374A0093374B0A21FFF747FDDEE7354BE35C002BDAD0DE230022F2
:201C00009B00E2540223A371D3E7304BE35C002BF4D00023A3550333F5E7DE26B600A05D73
:201C2000002804D1214B2A4A00932A4BDEE72A4BE75C2A4B002F08D001220020E254FEF758
:201C4000D5FF0023A3550423DDE70120E754FEF7CDFFA755A571ACE7DE239B00E05C0028E8
:201C600004D1124B1E4A00931E4BBFE7174AA25C002A05D0DE2300229B00E2540523C2E705
:201C8000E254E0E7DE239B00E05C002804D1074B154A0093154BA9E70C4AA25C002AE9D007
:201CA0000022E2546323AEE7DC040020D8B10000EBB40000E5B4000073B10000B40D0020EB
:201CC000C4B40000D9B40000F2B10000930700006AB100005FB10000910700007303000089
:201CE00000B50000F4B4000012B500000AB500007FB5684CE379022B00D175E008D8002B5F
:201D000012D0012B43D00023E371053323703CE0032BF8D1DE239B00E05C002800D08CE011
:201D20005D4B5E4A009307E0DE229200A05C002806D1594B5A4A00930A21FFF7A1FC24E0AF
:201D4000584A1D00A05A1A00824213DCE026A118B60089190E7831003039092907D8E118BC
:201D60000133B831DBB20E70E118B8310D700132D2B2E9E721004C48B83102F0A3FADE2327
:201D800000229B00E2540123E37104B070BDDE239B00E05C002818D000231A001800E025B5
:201DA000A118AD0049190D78002D12D029003039092907D8E1180133A831DBB20D70E1181B
:201DC000A83108700132D2B2E9E7334B374A0093B2E721003448A83102F074FA0223E371B1
:201DE000DE239B00E554D0E7DE239B00E05C002818D000231A001800E025A118AD0049194D
:201E00000D78002D12D029003039092907D8E1180133C831DBB20D70E118C83108700132BE
:201E2000D2B2E9E71C4B224A009385E721001E48C83102F047FA0323D1E706221D4902A8B3
:201E400006F06AFEE0239B00E01802A907F049FC00235A1DD2B2855C0A2D0FD02A000D3A21
:201E600051424A41D2B2002A08D1E1180133DC31DBB20D70E118DC310A70EAE721000A48B5
:201E8000DC3102F01FFA6323E371DE2300229B00E2547AE7DC040020F2B1000031B4000073
:201EA00019B400007E030000B40D002021B4000029B4000038B4000007B5DE220C4B9200B0
:201EC000985C002806D10B4B0B4A00930A21FFF7D7FB0EBD00219954BC22013152009952B8
:201EE000773AFF3A0A201A7002F02CF9F1E7C046DC040020F2B100003EB4000013B5314C75
:201F0000637A022B44D006D8002B16D0012B31D0012323701CE0032B09D1FA24A4002A4997
:201F20002A4802F0AAF9200002F00CF9F7E7632BEED1274802F006F9EAE7DE229200A05C99
:201F4000002811D1234B244A00930A21FFF798FBDE239B00E05C002827D11E4B1E4A0093F8
:201F60000A21FFF78DFB16BDA3540123637201F0B5FCEDE701F0A4FC3C28E9DD1749134809
:201F800002F07BF90020FEF7FDFE02236372DFE701F096FC4628DBDD11490C4802F06DF95C
:201FA0000120FEF7EFFE0323F0E70022E254BC2301325B00E252773BFF3B0A48237002F065
:201FC000C1F8D0E7DC040020A6B40000B40D0020204E0000F2B1000086B4000091B40000C6
:201FE0009CB40000102700000022034B1A720B3258701A707047C046DC040020F0B5C24C5F
:2020000087B0E178052900D19FE01FD8022900D180E00BD8002954D001295BD06320FEF762
:20202000DFFD0023A370E3700C3360E1032900D181E00429F2D1DE239B00E05C002800D09D
:2020400072E0B24BB24A0093B24B4FE0082900D14FE126D8062900D187E00729DED1DE26FC
:20206000B600A35DAC4D002B00D02BE1655B002D00D015E120007B30FF30A84907F0EBFA30
:20208000112D00D178E02800FEF776FD002800D16DE02000A2497B30FF3007F0B7FA013540
:2020A000EEE70A2900D1A3E1B8D2DE239B00E35C002B39D1954B9B4A00930A219A4B02209F
:2020C00015E001F00BFC0720FFF78EFFE3780133E3700EE0DE250020AD00FEF781FD605D99
:2020E000002812D1894B914A00938A4B0A21FFF7C7FA01F0E5FB3C2805DD8D498D4802F028
:20210000BCF80D23237007B0F0BD01F0E7FB00236355DBE7DE239B00E05C002804D17B4BD9
:20212000854A00937B4BE1E701F0D8FBDE2300229B00E254CAE7DE239B00E05C0028F3D182
:20214000724B7E4A0093734BD0E7DE25AD00605D002804D16D4B7A4A00937A4BC6E701F016
:20216000BDFB002363550733B2E70723B0E720007B30FF30744990E720007B30FF30734954
:2021800007F044FA00263000FEF72CFB250006F04BFB6F4F7B3502000B0003A83900FF35A4
:2021A000013607F011FAF6B203A9280007F02EFA092EE8D1FEF72EFB06F036FB02000B0009
:2021C00003A8390007F000FA03A9280007F01EFAFEF744FB06F028FB02000B0003A8390009
:2021E00007F0F2F903A9280007F010FAFEF754FB06F01AFB0B000200564903A807F0E4F9AE
:2022000003A9280007F002FA5349280007F0FEF921002800B83107F0F9F95049280007F072
:20222000F5F921002800C83107F0F0F94C49280007F0ECF921002800DC3107F0E7F9494936
:20224000280007F0E3F9A11DFF31280007F0DEF94549280007F0DAF921006A31FF3128000B
:2022600007F0D4F9BC235B00E35A4049002B0ED03F49012B0BD03F49022B08D03E49032BC0
:2022800005D03E49042B02D0052B03D13C49280007F0BCF920007B30FF303A4907F0B6F961
:2022A00025007B35FF352900374801F0E6FF2900204801F0E2FF1E21144B344A0093344B06
:2022C000012014E7334BE35C002B05D001F006FB0023A3556353F9E6A355635B01339BB24C
:2022E00063530A2B02D821700123F1E60D232370FFE6DE239B00E35C002B51D1034B264AFF
:2023000000930A21254BDBE7DC040020D8B1000096B20000F2B1000076030000CEB2000060
:20232000CCB10000EEB30000E6B3000060B2000073B10000B40D00206AB2000075B200008C
:20234000AEB20000A6B200005EB20000F0B20000F5B20000FBB2000000B3000007B3000052
:202360000FB3000015B300001BB3000021B3000030B3000040B300004FB300005DB3000049
:2023800068B300007BB30000481400203EB5000088B3000091070000A4B3000099B300000F
:2023A000E0239B00E0181C4907F09BF91B4D061E1B4816D01B4901F085FF635B01339BB2AA
:2023C00063530A2B04D807232370063BE37001E00D23237001F082FADE2300229B00E254E0
:2023E00087E6114901F06EFF6653E3780133EDE7DE25AD00605D002804D10C4B0C4A0093F2
:202400000C4B74E601F06AFABC2200235200A352635563335CE6C046BCB3000076030000F0
:20242000B40D0020CBB30000DCB30000D8B1000003B40000F2B100000522024B1A700022AB
:202440009A707047DC04002010B5040001F046FA0822024B5C701A7010BDC046DC04002021
:20246000DD220121034B9200995407221A700022DA707047DC0400200121024B024AD154B8
:202480007047C0466E030000DC0400200121024B024AD1547047C0466F030000DC040020FF
:2024A000DC230121014A9B00D1547047DC0400200121024B024AD1547047C0467103000028
:2024C000DC040020DF22084B920010B59852002004324C1C98542100044801F0F3FE21004D
:2024E000034801F0EFFE10BDDC04002048140020B40D00200121024B024AD1547047C046EC
:2025000079030000DC040020F7B50700002607F0BBF800960190019B9E426CDA009BBC1963
:20252000013335492000009307F09DF8051E0CD006223249200007F0AEF800280CD12A001C
:202540002F48A11D0F3007F0B7F875196E1CBB5D0A2BE0D1AE1CDEE706222A49200007F00A
:202560009AF8002804D12648A11D2A000A30EAE709222549200007F08EF8002805D1210016
:202580001F4809312A003330DDE70C221F49200007F081F8002805D1210019480C312A003C
:2025A0004730D0E707221A49200007F074F8002806D1E01D06F032FA114B98331860C4E776
:2025C000144E1549300001F058FE0A220099300001F0D1FE1149300001F04FFE27003B1BCA
:2025E0009D4205DD3978300001F04BFE0137F6E7300001F04BFEF7BD3CB5000062B00000C9
:20260000DC04002069B0000070B000007AB0000087B00000B40D00208FB000009FB00000B1
:20262000F7B50025070007F02FF82E000190019B9D4245DA7C193149200007F014F80136E2
:20264000009000280DD00E222D49200007F023F800280ED120000E3006F0E0F9294B9C3396
:202660001880009BEB185D1C7A5D0A2ADFD19D1CDDE70D222449200007F00DF8021E20D1AA
:20268000A3185B7B1900303901290BD8313B904059424B410132184380B2102AF0D1FEF707
:2026A000DDFB0DE0194C1A49200001F0E6FD31000A22200001F05FFE1649200001F002FE5E
:2026C000F7BD124D1249280001F0D7FD31000A22280001F050FE1049280001F0CEFD260078
:2026E000009A331B9A4205DD3178280001F0C9FD0136F5E7280001F0C9FDE1E73CB5000001
:20270000B5B00000DC040020C4B00000B40D00208FB00000D2B000009FB00000036C406CD4
:20272000181A00D540307047F8B504000F0016001D000E49006801F0A0FD3900206801F079
:202740009CFD0A223100206801F02BFE2900206801F093FD0649206801F08FFD2068036868
:20276000DB689847002001F0EDFCF8BDB5B500003CB50000F0B50400002589B00A00334B9E
:202780000F003349FFF7D0FF01950095314B324A32492000FEF7F0FE01283AD00025BB0035
:2027A000E3185B683A0002932D492E4B2000FFF7BBFF284F284E019500953B0032002A49D5
:2027C0002000FEF7D9FE01281FD12C212000FEF79DFD2C212000FEF799FD0A22216805A89E
:2027E00002F012FA05A803F08BFF039005A803F0E7FD0195009532003B001C492000FEF788
:20280000BBFE039E751EAE41F5B2029B00261D7619E02C212000FEF779FD0A22216805A8AC
:2028200002F0F2F905A803F06BFF060005A803F0C7FD01950095074B074A0C492000FEF70F
:202840009BFE002EAAD0300009B0F0BD5DB2000088B500001DB5000030B5000090B5000059
:202860009EB500009AB50000A7B500002BB500007FB505000024A300EB185E68002E09D0AA
:20288000737E002B06D00023E1B273762800FFF771FFF0820134052CEDD1286803681B6904
:2028A000984700280AD00022054B02920093019213000A212800FEF73FFEEEE77FBDC0465C
:2028C0001DB5000070B50400250000201C3501F039FC2800FFF722FF002805D1237E002B38
:2028E00002D02069FFF7C4FF2800FFF717FFE38A181870BDF8B504000F0016001D00114979
:20290000006801F0BAFC3900206801F0B6FC31000A22206801F045FD2900206801F0B1FCDD
:202920000A220699206801F040FD0749206801F0A4FC20680368DB689847002001F002FC89
:20294000F8BDC046B5B500003CB50000F0B50500170089B00020039101F0F4FB2869FFF74C
:2029600087FF2C692A7D00252C23224920000097FFF7C0FF204E0195009533001F4A2049AC
:202980002000FEF7F9FD012803D00027380009B0F0BD322001F0D6FB20683A00036803998E
:2029A0005B68984720680368DB689847019500953300124A13492000FEF7DEFD0128E4D17C
:2029C0002C212000FEF7A2FC21680A2205A802F01BF905A803F094FE070005A803F0F0FCCA
:2029E000019500953300054A07492000FEF7C4FDCCE7C046C0B500001DB5000030B500001F
:202A0000C8B50000CAB500002BB50000F0B50400002587B000912C2329491600FFF76AFF0E
:202A200001950095274B284A28492000FEF7A4FD012841D12C212000FEF768FC21682C2288
:202A400003A802F0E1F803A803F05AFE070003A803F0B6FC22212000FEF758FCBD421ED01A
:202A6000206803681B699847002802D101F06AFBF6E7206803685B699847C3B23F209C4686
:202A8000B300E3185B68D96D4A1C0240186E824203D0604659180877DA650135DEE72221A7
:202AA0002000FEF733FC0023074A019300930849044B2000FEF760FD280007B0F0BDC04693
:202AC00088B500001DB5000030B5000090B500002BB50000F0B5040087B0002004910592B1
:202AE00001F030FB2069FFF7C3FE00230093009B059A934254D21300009A9D1A23001C33B9
:202B000018000293FFF70AFE070085420FD900282DD0049B019703930298FFF7FFFD0028AE
:202B200007D1049BDB190493009BDB19DEE72F00EFE74023266E9D1B019B9D4200DD1D0016
:202B4000854200DD0500029B2A009919039805F0E3FF3F23AE191E40019B26665B1B019328
:202B6000039B5B190393019B002BDAD0D4E72069FFF77EFEE18A002912D0236EE26D2069A7
:202B80009B1A002B00DC4033013B9AB2914200DB1100227DFFF73AFFE38A181AE082A6E763
:202BA000009807B0F0BD70B5160004001D00006801F063FB3100206801F05FFB2900206851
:202BC00001F05BFB70BD000010B504000A00064B0649FFF7E8FF20680368DB6898470020FC
:202BE00001F0B0FA10BDC0463CB50000B5B50000F0B585B005000F0001F09EFA060001F09E
:202C00009BFA801BB8421AD20E492800FFF7DCFF0023029301930C4B0C4A0093C8210C4B82
:202C20002800FEF789FC04006420012C04D101F089FA200005B0F0BD01F084FADFE700201D
:202C4000F8E7C0463EB500001DB500002BB5000030B50000F0B585B006000D0001F06CFAC1
:202C6000039001F069FA039BC01AA8422ED2002418493000FFF7A8FF174F019400943B00EF
:202C8000164A17493000FEF777FC012804D0FA20800001F057FAE4E7124B134A009313498F
:202CA000134B01943000FEF767FC0500019400943B000A4A0F493000FEF75EFC2800012DAF
:202CC00005D0002D02D00220032D00D9002005B0F0BDC0463FB500001DB5000030B50000C2
:202CE00046B5000065B5000057B500005FB500004FB500002BB5000070B50E008EB02949D8
:202D000004003000FFF760FF274D05A8290003F09FFB0023FA2103930293244B05AA019338
:202D2000234B890000933000224BFEF715FB012809D02900200003F08BFB05A803F040FBC8
:202D400020000EB070BD1C4908A803F081FB29000BA803F07DFB0BAA08A905A803F017FC84
:202D60000BA803F02DFB08A803F02AFB134908A803F06EFB12490BA803F06AFB08A90BAA89
:202D800005A803F004FC0BA803F01AFB08A803F017FB05A803F08BFC05A9200003F002FB3E
:202DA000CBE7C046D0B000003EB500001DB5000030B500002BB5000038B500003CB5000073
:202DC00060B00000F0B50600002403688DB007929B6A06919847002001F0B4F935693A4979
:202DE00028003466F465FFF7EFFE384F01940094374B3A0037492800FEF7BEFB01285AD1BF
:202E00000A22296809A801F0FFFE09A803F078FC307509A803F0D4FA019400942C4B3A004D
:202E20002D492800FEF7A8FB327D2C4B2C492800FFF77AFC3A0001940094254B26492800C3
:202E4000FEF79AFB337D27492868059301F015FA2549286801F011FA0A220599286801F05B
:202E6000A0FA2249286801F008FA0699286801F004FA1F49286801F000FA0A22079928686D
:202E800001F075FA1B49286801F0F7F928680368DB689847200001F055F90D4B02940194FE
:202EA00000930D4A3B0014492800FEF745FB013844424441E4B22000337D32699B00D31868
:202EC00034765E600DB0F0BDD6B5000030B500001DB50000DFB500002BB50000E9B50000CC
:202EE000F0B50000B5B50000F8B5000000B6000003B600003CB50000F824010037B50400A9
:202F00000D000068104901F0B8F91049206801F0B4F929000E4A20000E4BFFF744FE206808
:202F20000368DB689847002001F00CF900230A4A0193009309490A4B2000FEF71DFB013843
:202F400043425841C0B23EBDB5B5000006B6000001B600003CB5000030B500002BB5000053
:202F60001DB5000037B50D0017490400FFF740FE002801D100203EBD14492000FFF724FE44
:202F80000023134A019300931249134B2000FEF7F3FA0128EED10C492000FFF75BFE0128FA
:202FA00008D0002D06D02B78002B03D029002000FFF7A4FF04492000FFF74CFE0138434248
:202FC0005841C0B2D7E7C04610270000B2B5000030B500002BB500001DB500007FB5194C54
:202FE0001949200001F049F9DE230021174E184D9B003000E954FFF7B5FF002818D0154910
:20300000200001F04BF9310001A8FFF775FE1249200001F032F901A9200001F049F903235E
:203020002B7000F05BFC01A803F0CAF904B070BD0A49200001F032F900F050FC0D232B70D8
:20304000F4E7C046B40D002049B40000F00C0020DC04002056B4000069B4000071B4000049
:2030600030B5114985B00400FFF7C2FD002802D1002005B030BD00250C492000FFF7A4FD35
:203080000B4B0295009301950A4B0B4A06492000FEF752FA0128EBD1084801F053F8290026
:2030A0002000FFF75FFFE4E71027000040B400001DB5000030B500002BB50000B80B00004C
:2030C00010B50348FFF7CCFF0D22024B1A7010BDF00C0020DC04002010B50348FFF7C0FF6B
:2030E0000E22024B1A7010BDF00C0020DC040020F0B5002585B02B002A00290000958E48F8
:2031000001F05EF88D4CFA2620008D4B8D4AB6001A608D4A5D601A618C4A9E605A612900A9
:2031200008C0142205F013FD894B8A4A9E601A600122894E5D601D66DD651C611A75DD8285
:203140001D765D763378854C03936B4620001B7B290004220B30A37205F0F9FC2000711D59
:2031600018220F3005F0D8FC200029000622273005F0EDFC6A4623002000127B2D331A70FD
:20318000290002222E3005F0E2FC6A4623002000127B30331A7029000222313005F0D7FCCE
:2031A0002000310012222331333005F0B5FC200029000222453005F0CAFC0A27200031000E
:2031C0003A003731473005F0A7FC200029004622513005F0BCFC2300502298331A60230062
:2031E000E1229C3312011A8023001E229E331A8023001432A0331A802300D219A2331A802F
:203200002300373AA4331A80230010262000A6331F80534F32003900A83005F07DFC200045
:2032200032003900B83005F077FC200014224D49C83005F071FC200032003900DC3005F001
:203240006BFC200032003900EC3005F065FC200029000922FC3005F07AFCA01D32003900D7
:20326000FF3005F059FC2000163029005422FF3005F06DFC20003C496A300B220731FF3070
:2032800005F04AFC2000753029000422FF3005F05EFCBC2302225B00E2526A46127B02335D
:2032A0002000E254F4227C302900FF32FF3005F04EFC01222D4B2900E254F9222C4B920010
:2032C000E5540133E5542B4BE5542B4BE5542B4BE5540133E5542A4BE5520233E554294B40
:2032E000E554294BE5520233E552284BE5520233E5500433E01805F02AFCED23DB00E55000
:20330000234B3200E018290005F021FC214B3200E5500433E018290005F019FCF223DB00B5
:20332000E5541D4BE5541D4BE5541D4BE5541D4BE55405B0F0BDC046D4040020F00C002054
:20334000D80C00209CAF000048140020B40D0020740C00205CAF0000B8AF0000DC040020AF
:2033600052B000004EB0000038B000006E0300006F03000071030000720300007303000023
:2033800076030000790300007A0300007E0300006C0700007C070000910700009207000013
:2033A0009307000094070000F8B5FA26DF25B600AD00484F380001F083FD474C00281DD0BC
:2033C000380001F049FEC7B23900444801F06AFE4349E020635A8000E21801339BB26352ED
:2033E000002112181770E21812181170B342E0D1F2230122DB006153E254DAE7ED23DB0007
:20340000E118E0239B00E01806F06BF9002802D00122344BE254344BE118E0239B00E018E3
:2034200006F05FF9002802D00122304BE254304BE35A002B1FD1E0239B00E0182D4906F09B
:2034400050F9002805D000222B4BE2542B4B0132E254DF239B00E35A012B2BD10021264AE6
:203460001E48A154F222D200A354E0239B00E11800F028FF1EE0012BEBD1214AA15C0029EF
:20348000E7D11849615C0029E3D0A354DF21ED2303208900DB006052E118E0239B00E518A6
:2034A000280006F01EF917490600280006F019F98642C8D3ED23DB00E118E0239B00E01864
:2034C00006F00FF9002803D0DF2302229B00E252F8BDC04648140020DC040020B40D0020E6
:2034E0007E030000910700007C070000920700007A0300003AB50000790300009307000015
:20350000940700003CB5000070B52E4B2E4C0125E25C002A0BD00022E254F73BFF3BE25A9E
:20352000002A01D10432E252FEF79AFF00252300A2331B88002B11D1002D0FD07933FF33E0
:20354000E25A002A01D10332E252220023009C321288A2331A800025FEF782FF2600A43613
:203560003388002B0BD1002D09D000F0B7F90C20FEF76AFF230000259E331B883380134B8C
:20358000E25C002A05D0002D03D00022E254FEF753FFDC239B00E25C002A03D0002D01D07C
:2035A0000022E2540A4C200001F08AFC002807D0200001F051FDC1B2064801F073FDF1E76E
:2035C00070BDC0466E030000DC0400206F03000048140020B40D002070B5414B414CE35CFB
:2035E000002B23D0FFF7E0FE00F05EF900F056F900281AD0DF229200A35A002B01D0013B79
:20360000A3522200A2321388002B01D0013B13802200A4321388002B01D0013B1380A63421
:203620002388002B01D0013B238070BD2E4D280001F046FC002807D0280001F00DFDC1B26C
:203640002A4801F02FFDF1E7207801380D2845D803F062F90710171A1D442026232D343BE4
:203660003E412349214800F02DFEFEF71DFA02232370B9E700F024F90A28B5DDFFF7AEFC06
:20368000B2E7FEF72FFAAFE7FEF778FAACE7FEF743F8A9E7FEF7B2FCA6E7FEF729FBA3E750
:2036A000DD2300229B00E254FEF712F99CE7DD2300229B00E254FEF749F995E7DD230022CC
:2036C0009B00E254FEF790F98EE7FFF71DFF8BE7FEF7F2FB88E7FEF711FC85E70C23C7E706
:2036E00079030000DC04002048140020B40D0020F5B00000F8B5431E0600324C3249012B13
:2037000039D83249200000F0DDFD314D022E36D03049200000F0B1FD290020000F3100F0CF
:20372000D1FD2D49200000F0A8FD290020000A3100F0C8FD2949200000F09FFD29002000F0
:20374000333100F0BFFD2649200000F096FD29002000473100F0B6FD98352249200000F09B
:203760008CFD0A222968200000F005FE0021200001F098FC1C49200000F0A4FDF8BD1B49FB
:203780009C35200000F09EFD29880A22200000F0F2FD1749200000F070FDFDF759FB0F2578
:2037A0000600012733002B4112493B4200D11249200000F062FD013DF4D2200000F066FD52
:2037C000D4E7C046B40D00200CB1000035B10000DC04002062B0000069B0000070B0000059
:2037E0007AB0000087B000003BB10000B5B00000C4B00000CCB100005EB2000010B50A4CFB
:203800000A49200000F05EFDE02309499B00C918200000F032FD0021200001F043FC05491B
:20382000200000F04FFD10BDB40D002035B10000DC0400203BB1000070B5431EC0B00600B0
:20384000124D012B05D91249280000F03BFD40B070BD1049280000F035FD0024280001F057
:2038600053FC6B461855013424B20028F6D118550949280000F026FD6846022E02D0FEF742
:2038800043FEE4E7FEF7CCFEE1E7C046B40D00207BB10000A5B100003BB10000014B187E5E
:2038A0007047C046080D0020014B987E7047C046080D0020014B58687047C046080D0020C4
:2038C000014B58697047C046080D00200022024B1A769A765A767047080D00200022014BB0
:2038E0005A617047080D0020094B9A6801329A60DA680132DA601A6901321A615A680132C9
:203900005A601023034A917B0B4393737047C046080D0020003400420222044B19880A4344
:203920001A80DA7B52B2002AFBDB7047003400420122054B1A80DA7B52B2002AFBDB1A885F
:20394000D207FCD47047C0460034004270B505001D4B1E4A5A805A78D209FCD11C4CFFF7DF
:20396000E7FF238829009BB2238020232288134323800223228813432380164B186802F01C
:20398000D5FF013880B22083E37B5BB2002BFBDB802211495203114BCA67BFF34F8FBFF3B9
:2039A0006F8FC021C520FF2549005A5080001958A94319501A601023627B13436373E37BD2
:2039C0005BB2002BFBDB70BD000C00401C400000003400428400002004E100E000E100E064
:2039E000FA20002210B5044B80001A70FFF7AEFFFFF792FF10BDC046080D0020134B1A784B
:203A0000012A07D0002A02D0022A05D0704701221A70FBE70222FBE70D4A9968914206D951
:203A200001221A7600229A605A6901325A61DA68632A03D901229A760022DA601A69092A16
:203A4000E4D901225A7600221A61DFE7080D0020E703000010B53D2105F0E5FD002803D03F
:203A6000013004F0DBFF10BD01204042FBE7000013B500240748230022000094210000F0D0
:203A80009FFB054BDA1CD4771A1D0633D477DC7713BDC046240D00202C0D002070B5002523
:203AA0000124002C23D0124E300001F005FB0028F7D0300001F028FB0E4EC4B2502130009B
:203AC000FCF760FC00213000FCF7A6FC29003000FCF7A2FC21003000FCF79EFC3000FCF7C6
:203AE000F8FC601E84410135EDB2E4B2D9E770BDB40D0020F4020020F8B500255027124E97
:203B00000536124C39002000FCF73CFC00212000FCF782FC29002000FCF77EFC2000FCF70D
:203B2000D8FC012239002000FCF771FC2000FCF7D5FCC1B20648F17701F0B4FAF37F013581
:203B4000EDB2002BDDD1F8BD2C0D0020F4020020B40D0020F7B5C04C2378012B07D0002B67
:203B600002D0022B05D0F7BD01232370FBE70223FBE7FFF799FE00282BD0B84D280001F04F
:203B80009BFA002825D0280001F0BEFAC0B20A2807D002000D3A53425A41D2B2002A00D12F
:203BA0002EE1661C31002800A71D00F08BFBFB7FAB4908223000002B47D005F06CFD002851
:203BC0003ED13000FFF746FF002802D1F877FEF791FCFFF763FE0028C5D0A24B19780131BB
:203BE000C9B21970A37F002B08D09C4D0A22280000F0D7FB9C49280000F03FFBE37F002BD9
:203C000008D09A4D9A48290000F05CFB2900934800F058FB237F002B00D1FEE00023954DCB
:203C20002B7028788D4E102800DDF2E0FCF7A4FF0A220100300000F09AFB2B780133EFE762
:203C400031008B4800F03EFBC3E705F024FD002805D13000FFF7FEFE012800D1F877661C6C
:203C600008228549300005F016FD002804D13000FFF7F0FEFCF7D2FE661C08227F4930009C
:203C800005F009FD002804D13000FFF7E3FEFDF7D3F8661C0A227A49300005F0FCFC0028B0
:203CA0000ED13000FFF7D6FE06007649280000F009FB3000FFF7C0FD7349280000F002FB96
:203CC000661C09227149300005F0E5FC002804D13000FFF7BFFEFFF70DFD601C08226C493C
:203CE00005F0D9FC002801D1FFF788FD661C09226849300005F0CFFC002806D13000FFF712
:203D0000A9FE012877D1FFF7DBF9611C624805F098FC002803D10123A27F5340A377611CA6
:203D20005E4805F08EFC002803D10123227F53402377611C5A4805F084FC002803D10123BC
:203D4000627F53406377661C02223100474805F0A2FC002807D10123E27F310053402800AB
:203D6000E37700F0AFFA611C4E4805F06AFC002806D1FFF79FFD0A220100280000F0FBFA17
:203D8000611C494805F05DFC002801D1FEF790FB611C464805F055FC002801D1FEF776FB9C
:203DA000611C434805F04DFC002801D1FEF778FB611C404805F045FC002801D1FEF75CFBDA
:203DC00063783A2B03D1611C0A20FEF77BFB611C394805F036FC002801D1FFF75FFE611CCE
:203DE000364805F02EFC002801D1FFF785FE002363706383EDE6022887D1FFF76DF984E7BB
:203E0000638BE11801339BB26383E31848705A70DFE62B49300000F030FA637F002B00D176
:203E20007DE00023134F3B7038780C4D254E08284ADCFCF7D7FC04F0F7FC0B000221020046
:203E40000091280000F070FB3100280000F015FA3B780133E7E7C0462C0D0020B40D002001
:203E60000EB60000520D00203BB400005DB6000048140020530D002017B6000020B600005E
:203E800029B6000035B100003BB1000034B600003EB6000047B6000051B6000055B6000084
:203EA00059B6000060B6000065B600006AB6000070B6000076B600007BB6000080B60000E9
:203EC00060B0000050AF0000FCF7A4FC04F0ACFC022702000B000097280000F025FB31006E
:203EE000280000F0CAF9FCF7B9FC04F09DFC009702000B00280000F017FB3100280000F09B
:203F0000BCF9FCF7C9FC04F08FFC009702000B00280000F009FB3100280000F0AEF9237F63
:203F2000627F134303D1A37F002B00D11BE60249024800F0C7F916E660B00000B40D002025
:203F400010B5FFF75BFDFDF71DF9FDF78FF8FCF7D1FCFFF7FFFDFFF73FFBFFF7B7FC10BD71
:203F600007B50021034800910B000A0000F028F907BDC046540D002010B596242402FFF77C
:203F80002FFDFDF7F9F8FCF729FFFCF7A7FCFDF739FB2100064801F015F90A2000F0D2F8E5
:203FA0002100044800F04AFE034800F0CBF810BDB40D002048140020B80B000007B5002194
:203FC000034800910B000A0000F0FAF807BDC0465C0D002007B50021034800910B000A00ED
:203FE00000F0EEF807BDC046640D002007B50021034800910B000A0000F0E2F807BDC0462E
:204000006C0D002007B50021034800910B000A0000F0D6F807BDC046740D002007B5002133
:20402000034800910B000A0000F0CAF807BDC0467C0D002010B50400183002F0C1F920008D
:2040400010BD000070B58360049B06000025C360012304001836426005744574436101604F
:204060003000054902F0F4F965623000402102F0C6F9200070BDC0463EB500001F23E1224F
:2040800013B5074C00935202013306492000FFF7D9FF054A0549200002F036FC13BDC046F6
:2040A000840D002048140020000000203540000003BEFEE7034B10B51B68002B00D0984728
:2040C00010BDC046AC0D002070B50F490F4CA14204D100F0D3FC00F083F8FEE70C4D002319
:2040E0008D42F6D0CA18E818A24205D39042F0D0084B0949002204E0006804331060F1E769
:2041000004C38B42FCD3E4E700000020B0020020D4BD0000B00200203815002010B500F0FA
:204120002AF8002801D100F01BF810BD014B18607047C046AC0D0020014B18687047C046B0
:20414000B00D002070B5041E07D0044D2E6800F011F82B689B1B9C42F9D870BDB00D002082
:2041600010B5034A13680133136000F0F5F910BDB00D0020704700207047F7B5C31D0193D5
:20418000002306000D00041D009321780A22280000F007F92E210700280000F072F8009BE5
:2041A0003F18DB190093019B01349C42EDD1F17928000A2200F0F5F8009B1818FEBD000093
:2041C00030B503AC2578044CC5710834046001714271837130BDC04688B600007047000087
:2041E00010B501F05FFF04F033FCFFF7F7FF0120FFF7A8FF084C200001F03AFA200001F034
:2042000097FAFFF7B9FEFFF79BFE044B002BFAD000E000BFF7E7C046D00D0020000000000D
:2042200010B504F053FC10BDF7B506000D000C008B180193019B671B9C4207D033682178A0
:204240001B683000984701340028F3D13800FEBD70B505000C00081E07D005F015FA2B68EE
:2042600002005B6821002800984770BD10B503688A685B680968984710BD10B5FFF7E8FF80
:2042800010BD10B503681B68984710BD10B50249FFF7DEFF10BDC0463CB5000070B5040022
:2042A000FFF7D6FF05002000FFF7F0FF401970BD70B50500FFF7DAFF04002800FFF7E6FFA3
:2042C000201870BD70B50400FFF7C2FF05002000FFF7DCFF401970BDF0B5160000228DB003
:2042E00002AB053301900D00DA77012E00DC0A260BAC2800310002F09FFB0F00CBB228005F
:204300003100009302F012FBFBB237330500013CDBB2092F02D8009B3033DBB22370002D97
:20432000E7D121000198FFF793FF0DB0F0BDF8B506000C00151E04D10368C9B21B6898470A
:20434000F8BDD2B20A2D0DD12A0000290ADA2D21FFF797FF614207002A003000FFF7BCFF49
:204360003818EDE721003000FFF7B6FFE8E710B5FFF7DDFF10BD70B50400FFF7D8FF0500EF
:204380002000FFF783FF401970BD10B5002A04D10368C9B21B68984710BDD2B2FFF79CFF11
:2043A000FAE710B5FFF7F1FF10BD10B5FFF7EDFF10BD0000F0B51E0085B00AAB1B780500EB
:2043C0000193100033003100170004F0A1F900287BD04D4990E0E0224C4B1206380031009D
:2043E00002F044FC002801D0494985E0E022494B12063800310002F025FC0028F4D1002262
:2044000000233800310002F01DFC002814D02D212800FFF736FF80231B060290F6180024D0
:2044200000203D49019B9C4208DA00223B4B013402F0A4FFE4B2F5E70290F0E733003A00C0
:2044400002F08CFC0F00060002F024FC0A22039001002800FFF740FF029BC418019B002B5E
:204460004ED0039804F0A8F902000B003000390003F038FE06000F0028002E21FFF701FFCD
:204480002418019B002B3BD0244B00223000390003F0A8FB0F00060002F0FCFB0A22010053
:2044A00002902800FFF718FF2418029804F084F90B0002003900300003F014FE019B0600D1
:2044C000013BDBB20F000193DBE70122740064085242134B3800210004F01AF9002800D061
:2044E00079E701220E4B52423800210002F0B4FB002800D06FE70B492800FFF7A9FE0400E7
:20450000200005B0F0BDC0469CB60000FFFFEF4198B60000FFFFEFC10000E03F0000244014
:20452000FFFFEF7F94B6000037B51D006B461B7E00932B00FFF73EFF3EBD0000014B1860C2
:204540007047C046040000200122024B52421A607047C04604000020164A10B51368591C06
:2045600027D0013B1360002B23D172B6124B134A0433934208D8BFF34F8F114A114BDA6027
:20458000BFF34F8FC046FDE70F4A01211000147D0C42FCD02021148BFF319B085B002143F9
:2045A0001183D361094B13800123027D1A42FCD0E1E710BD040000200000000003020000C3
:2045C0000400FA0500ED00E00040004102A5FFFF01607047F0B505AC25780468981E471E53
:2045E000B84126689207000632430243072022600140AD01626829430020022B00D0580395
:20460000114301436160F0BD10B5C0240368A4031868120522400243C020090480020140EB
:20462000114319605A681043586010BD0122036819680A431A601A68D207FCD4DA69D207F6
:20464000F9D470470222036819680A431A60DA699207FCD4704703681A7ED20702D41A7E52
:204660009207FCD57047002203685A8370470368187E4007C00F70470368187EC0097047A9
:20468000802302685B42117E0B43137670470368187EC007C00F70470368188DC0B27047CC
:2046A00003681A7ED207FCD589B2012019857047012203689A757047012203681A75704774
:2046C00070B5012504684B082B402940206809075B070B43034323605100034802F026F93E
:2046E0000138C0B2207370BD006CDC020122036819680A431A601A68D207FCD4DA69D207E8
:20470000F9D470470222036819680A431A60DA699207FCD470470368DA699207FCD40221A1
:204720001A688A431A6070470268936A5B0A5B0219439162137E5B07FCD5906AC0B270479A
:204740000122036819680A431A601A68D207FCD4DA69D207F9D470470222036819680A435B
:204760001A60DA699207FCD430215A8B8A43110010220A435A83DA695207FCD470478023DD
:204780000268DB02116851680B43536070470000036803491A685A680A405A607047C0462C
:2047A000FFFFFBFF036810B518680322C006400F094C052809D158681140090420400143F9
:2047C0005960DA695207FCD410BD586811400904204001435960F7E7FFFFFCFF49001143F8
:2047E000036810B5CCB2598B8906890F012904D0598B8906890F0229F5D1596AC90AC902A5
:2048000021435962002A0CD0187E8007C00F0BD11A7ED207F8D5C022596892020A435A602F
:2048200010BD1A7ED207FCD5588B4007C30F01205840F5E703681A0028321170187EC0071B
:20484000C00F03D15A8BD207F8D57047588B4007C30F01205840F8E7036800201A002832E0
:2048600011701A7E520704D5588B01234007C00F5840704703681868C006400F04384342C0
:204880005841C0B270470368187E4007C00F70470368187EC007C00F70470368588BC00626
:2048A000C00F70470368187E8007C00F70470368588B0007C00F704703681A68D206520F63
:2048C000052A02D11A7E9207FCD528331878C0B2704700000368214A30B5934211D0204AE5
:2048E00093422FD01F4A93422FD01F4A93422FD01E4A93422FD01E4A934222D10E23192292
:2049000001E0092314220121032599401948C024016099082B40AB40FC359D4089000918DC
:20492000A4000859A843C0259D402B0003430B518023DB011A43104B5A805A7852B2002AE7
:20494000FBDB30BD0A231522DDE70B231622DAE70C231722D7E70D231822D4E700080042B0
:20496000000C0042001000420014004200180042001C004200E100E0000C0040F8B50400CB
:2049800016000F001D00FFF7A5FF2000FFF74EFE1C22BB00134072072468120C1343236091
:2049A0008423A375012F18D11021012E00D008390A4B69431868C00001F0B8FF0722A38970
:2049C0000240DB045203DB0C1343A3810304A089DB0C400B40031843A081F8BD8400002086
:2049E000F7B50700019308AB1E780D001400FFF77DFE3800FFF76EFFC02224059203144006
:204A0000B2070C2607211643019A34430A40C02611008022B6022D043B6835409202254338
:204A20000A431D605A60F7BD70B505000C00FFF751FF2800FFF784FE14232D6861002B606A
:204A40000C4B1E68300001F071FF0B490400300001F06CFF7D23FA215843C90001F066FF8F
:204A6000FF23241AE868053C1C4098430443EC6070BDC0468400002040420F001E2270B5AE
:204A800046484749436893431C3A1343436008238C6923438B61434C434B9C829C8A1443FE
:204AA0009C82DC681442FCD00124404A14701578254203D055786DB2002DF8DB0124946073
:204AC000547864B2002CFBDB394C5460547864B2002CFBDB8224E4015480547864B2002C68
:204AE000FBDB02249C840E34DD682542FCD0314CDC621024DD682542FCD09D8C2E4C2C4367
:204B00009C841024DD682542FCD002249D8C80262C439C844024DD683542FCD0DD682542AD
:204B2000F9D01024DD682542FCD000249460547864B2002CFBDB214C5460547864B2002CD5
:204B4000FBDB1C6A1E4D2C4080251C621C6AAC431C62032393601B4B536053785BB2002BD7
:204B6000FBDB0023FF240B72174A4B728B72CB72164B1A60164B174A1B6811689A065B01AF
:204B8000C90E2340520F12020B431343124A1385802342681343436070BDC04600400041D4
:204BA000000400400C06000000080040000C004001050100B905FF7D040A000000070300B2
:204BC000FFFCFFFF03060100006CDC028400002024608000206080000040004210B5040095
:204BE000FFF7AAFAE060236820005B699847002808DAFFF7A1FAE368C01AA3689842F2D323
:204C00000120404210BD000070B50D0009490400160001F01DFC2800FFF7E0FF002806DB76
:204C2000B04204D0C1B2200001F05CFCF3E7200070BDC0463EB500000120704710B50368AA
:204C4000014A1B6A984710BD13040000826D436D9A4203D0836DC018007D704701204042D4
:204C6000FBE710B504000069FFF7E0FC0023220063659C32A365A0341360236010BDF020C4
:204C800001403039484248417047F0231B011940802306209B0099420AD00133FF33013068
:204CA000994205D0802302385B00994200D0002070470F2001400020012903D00239481E5C
:204CC0008141481C704700000300F0B5182685B00391A43304001878330008214343334D7B
:204CE0001700EB18595601F0FFFA2300A5331878330008214343EB18595601F0F5FA2300DF
:204D0000A7331B78022B0AD12300B8331878FF2805D008214643AE19715601F0E5FA26004E
:204D2000A8363078FF2819D0012101F065FA1822210033781E485A43AB56AC31DB01181878
:204D400008601C49AD185B1821000122B0310B6069688A402100B4310A601A600122039B78
:204D600011002069FFF70AFE39002000FFF78DFF390005002000FFF79CFF39000600200072
:204D8000FFF77DFF33000090290020690122FFF721FC2300A6331A7859782069FFF734FCE8
:204DA0002069FFF74FFC05B0F0BDC04640B70000184400411444004110B540220021040048
:204DC00003F0C5FE002320002364636410BD0000F0B585B01D000AAB1B78040000930BAB33
:204DE0001B78160001930CAB1B780F0002930DAB1B78039300234360FA239B0083600F4BEC
:204E0000083303601430FFF7D7FF20005C30FFF7D3FF6A4623001278A43327619A706A46FA
:204E200012792000DA706A46127A1E701A716A46127B5D701A7505B0F0BDC046A0B60000D1
:204E4000F7B51D0008AB1B780400009309AB1B781600019300234360FA239B0083600E4B01
:204E60000F00083303601430FFF7A6FF20005C30FFF7A2FF6A4623001278A43327619A709D
:204E80006A4612791E70DA7022005D70FF23A832200013701374FEBDA0B60000036C406CBE
:204EA000181A00D54030704710B5040020005C30FFF7F4FF0028F9D12069FFF7CCFB10BD61
:204EC00010B51430FFF7EAFF10BD026C436C9A4204DB036C406CC01A3F307047436C006C0F
:204EE000181A0138F9E710B55C30FFF7EEFF10BD70B504000069FFF7BAFB00281FD0206989
:204F0000FFF7CAFB3F22636D01331340A26D934203D0626DA218107563652300A8331B7800
:204F2000FF2B0CD020001430FFF7CFFF092806DC23002200AC33B4321B6812681A60206926
:204F4000FFF7A5FB002819D025005C352800FFF7A5FF002821D022002300A0329C331168BA
:204F60001B68994216D03F201368E95C1368013303401360C9B22069FFF792FB2069FFF763
:204F80007BFB002805D02069FFF77AFB2069FFF76AFB70BD01214942ECE72069FFF78CFB13
:204FA000ECE70000F8B5040000690D00FFF76FFB002826D13F260127220021009C3213685F
:204FC000A03108680133334083422ED1EFF310833B420DD11D4B5B68DB05DB0DECD0103B5B
:204FE0005BB2002B18DB9B08C033194A9B009B582069FFF74CFB0028DED02000FFF778FFD6
:20500000DAE720005C30FFF749FF0028D2D129002069FFF745FB16E00F221340083B9B08D2
:205020000C4A9B009B181B68E2E7136801331E400B689E4204D0210013685C31CD5416608C
:205040002069FFF735FB0120F8BDC04600ED00E000E100E01CED00E0826D436D70B5040086
:205060009A421AD03F22836DC3181D7D836D0133134083652300A8331B78FF2B0BD020008F
:205080001430FFF722FF0A2805DD2300B434B0331B6822681A60280070BD01256D42E9E732
:2050A0003F20704713B56B460268D9710733546819000122A04716BD10B50221006900F080
:2050C0001DFC10BD10B50321006900F02DFC10BD10B5130004000A000069032100F010FD42
:2050E000002801D10123636010BD000010B5054C23685A1C04D103685B6998470300206085
:20510000180010BD58000020074B0200186810B5411C03D0012252421A6010BD02211069CF
:2051200000F0E0FCF9E7C0465800002010B503784222023303700249024800F081FD10BD29
:2051400014000020D00D002010B50178030042780020A12908D1212A05D11A3A164917482D
:2051600000F06EFD012010BD2129FCD1202A11D1193A1149114800F01BFC96220E4BD200B3
:205180001968914203D10124D87904400ED0FFF7DBF90EE0222A03D19A78074BDA71ECE7F5
:2051A000232AE0D15A88064B1A60DCE7FA20FFF7C5F90020D7E7C0460C000020D00D0020A6
:2051C0000800002070470000FA220021054B92009A60054A596008321A60044A19761A61C3
:2051E0007047C046B40D0020D4B60000D00D002030B50F25CB1D013902002A4014000009C6
:205200003034092A01DD373214001C70013B8B42F2D130BD70B582291FD1C3B22C4D5A014E
:20522000AA1891692B4C80010C40C021890521439161294908330818802150612A685B019C
:20524000D01804794942214301717020995C8143080030210143995470BD0029FCD1C024AE
:20526000C1B21B4E4B01F3189A681A4DA4052A4022439A60194A800110180A0058603068BA
:20528000072608325201115CB1430E0001213143115499690D402C439C6170240E4959618A
:2052A000115CA1430C0010212143115499680C4C82180C4080214903214399609968890B79
:2052C00089039960402351790B435371C4E7C04688120020FFFFFF8FFC0D0020BC0F0020FF
:2052E000FF3F00F070B50400012320CC00212A782000134380222B70520003F028FCAB7845
:20530000DB07FCD46C6270BD1F22144B70B51B68590B9C0C9B0111405B0F22401F2900D1BA
:205320001A391F2A00D1023A072B00D1043B1F2500688E01048D0A492A402140314301859E
:20534000018D14000A00AA4322430285028D1903044B13400B43038570BDC046246080006E
:205360003FF8FFFFFF8FFFFFEFF3108303600123436072B670470368002B02D162B6BFF3BB
:205380006F8F704737B5056904006846002D14D1FFF7EAFF019B621D013B02D3D57FEDB23C
:2053A000FAE768460193FFF7E6FF002D01D100203EBD206AE369C01AFAE7FFF7D5FF220058
:2053C0000025019B3432013B02D31578EDB2FAE768460193FFF7CFFF002DE8D0206BE36AC5
:2053E000E9E70000F0B501254668037A31685A018C18FF34A77AB2183D43A572C468094D18
:205400009068A404284024092043906090680833800B8003906040225B01CB1819790A4353
:205420001A71F0BDFF3F00F0F7B5036904000E0017006846002B3DD1FFF796FF019B611D39
:20544000013B5A1C0CD0CD7F5A1EEDB2002D05D168460193FFF78FFF2800FEBD1300F0E7C5
:20546000684601930025FFF786FFE369AF4202D0226A934257D3226A9342EDD10023E3612A
:20548000013323616846FFF76FFF22000021019B671D013B3532581CDAD0F97710785E1EAA
:2054A000002805D0117020000193FFF79BFFECE73300F0E7FFF758FF2100019B3431013BA2
:2054C0005A1C06D00D785A1EEDB2002DC0D01300F6E7684601930025FFF74DFFE36ABD4242
:2054E00002D0226B934226D3226B9342B4D100236846E3622361FFF737FF27002200002168
:20550000019B3437013B3532581CA1D0397010785E1E002805D0117020000193FFF762FFC6
:20552000EBE73300F0E75A1CE261A269D3181B787355013599E75A1CE262A26AD3181B788B
:2055400073550135CAE7F7B5027A4368110004000831186849014118C879C00727D501252E
:205560005201CD719B189A6861699204920C002921D12262226A002A3ED0A26A6561684604
:205580005A60FFF7F1FE27002100019B661D013B343735315A1C2BD0F5773A78581ED2B26F
:2055A000002A05D0019368460D70FFF7E4FEF7BD0A700300EEE72263226B002A1CD0002205
:2055C0006261A26968465A60FFF7CEFE26002100019B3436013B671D35315A1C08D035706D
:2055E000FA7F581ED2B2002ADCD10A700300F4E768460193FFF7BFFE2000FFF7F3FED6E750
:2056000037B56B46DC1D00230D0020002370FFF78DFD2B681818286001F064F9210001F0E6
:205620001DF92B681818286020783EBD03290ED180220E4B62311B68FF31585C524202439D
:205640005A5468226339FF39FF32995470470129FCD18022054B24311B68FF31585C524230
:2056600002435A542339FF392822EDE788120020202370B5254A0400D1690F200B43D36105
:20568000012223490B7813430B70224B19788143197006211D78294319701F490D782A43D1
:2056A0000A701A7802401A70602219780A431A701A4B1B4A5A805A78D209FCD11948FEF7B4
:2056C00035FD194D2800FFF70DFE2800FFF71CFE7F212B68C1201A7880000A401A700422B1
:2056E00019780A430C211A701A898A430F491A810A581202120A0A5080220A6019787E3A71
:205700000A431A700123237070BDC04600040040584400413C44004159440041000C0040BC
:2057200006400000856000008812002000E100E00078002810D00121084B1B681A898A43DB
:205740001A810822198B0A431A830422198B0A431A830022024B1A607047C04688120020E2
:205760008012002010B50F4A93699B0B9B03936113680222FF331A729879823A02439A71AB
:205780001A7A9207FCD57F24074A2140937A0800A3431900802301439172917A5B420B43C2
:2057A000937210BD881200200050004110B50B790C00002B0CD10800FFF7C6FC002801D0B6
:2057C000012010BD094A93699B0B9B039361F7E701F088F8210001F074F80028F0D1034A51
:2057E00093699B0B9B039361EBE7C04688120020F7B50D00832A19D1CBB2324C5A01A21883
:2058000091693148AD010840C0218905014391612E4920684D197021083355615B011A5CC1
:205820008A43110040220A431A54F7BD022A44D18B000193264B8A00D658002EF5D13820E4
:20584000FEF7EEFC234B1F4F036080235B00C360431D0662856006614661C661040047607C
:20586000DE77C662066380202F331E7040005E7003F02CF90600A0618020400003F026F993
:20588000EDB26B01A062FB189A680F4907201140C02292050A439A603A6808356D01A95C04
:2058A0008143080003210143A95420005E60FFF799FD074B019AD450B7E711002800FFF76F
:2058C000A9FCB2E788120020FFFFFF8FFC0D0020D40D002000B7000070B505000124064BC3
:2058E000A200D258002A05D021002800FFF780FF0134F4E770BDC0465C000020084B8A0083
:20590000D05810B5002803D003689B68984710BDC9B2044B4901591888688004800CF6E723
:20592000D40D00208812002010B50C00FFF7E6FF00280CD0064BE4B21B68083464011C19BC
:20594000802362795B42134363710223E37110BD8812002070B5134BCCB2134A60018901B9
:205960005918131859609968104D08340D40802189022943402599609968890B89039960DB
:2059800011686301CB181E7935431D719D796D06FCD564010919CB79DB07FCD512189068B0
:2059A000C0B270BDBC0F002088120020FF3F00F070B5140040220B4B0D001B68FF335979F0
:2059C0000A435A710021FFF7C5FFA04200D9200000230549A34203D05A5CEA540133F9E7C8
:2059E00070BDC04688120020BC0F002010B5C9B20B484901421893689B049B0C3F2B0BDD05
:205A00009468403B9B04A40B9B0CA4032343936041188868C0B210BD93689B0B9B03F6E776
:205A200088120020F0B51C002A4B85B01B6806000D000192002B4AD0274B8A00D058002887
:205A400008D0036822005B68019998470400200005B0F0BD3000FFF751FF844204D92900DD
:205A60003000FFF74BFF040029003000FFF7BEFF0121EBB2194F03935B010293029A3B68B9
:205A800001989B18FF335A7A0A4315495A72AB01C918220003F040F8002CD8D02900300036
:205AA000FFF72CFF0028D2D14021039B3A6808335B01D3181879014319710121D9710121EA
:205AC000029BD318FF339A7A0A439A72BFE701246442BCE780120020D40D0020881200201E
:205AE000BC0F002013B56B46DC1D22000123FFF799FF012801D1207816BD01204042FBE78A
:205B0000F0B51E00354B85B01B680F000192002B35D08023DB019E4231D80025304A8B0125
:205B2000D3180293002E2CD02E4B1B680393FF233B401C0000930834039B64011C19A3794D
:205B4000DB0921D0284B2949186800F0EFFE284B1721584300F0EAFE264BE279920713D4C4
:205B6000DA5D002A01D10138F7D20122DA55009B5A011C4B9B189A69920B92039A61012538
:205B80006D42280005B0F0BD00221A4B3400DA553F2E00D93F2422000199029802F0BCFF36
:205BA000009BA1045A010F4B890C9B18029A2D195A619A69361B920B92030A439A61009BA2
:205BC000039A08335B01D3180222DA715979823A0A435A71019B1B190193A3E780120020F1
:205BE000FC0D0020881200208400002040420F0070110100F10D002070B50D001C000D4E44
:205C0000AB01F61811003000220002F085FFEDB209496D014D196E61AB69084A2000134084
:205C2000AB61AB69A2049B0B920C9B031343AB6170BDC046FC0D002088120020FF3F00F016
:205C4000F7B5104B01901B780F001500002B0CD10D4B16001C78002C09D00C4E0C4834887C
:205C60000019641902F058FF34802800FEBD002EFBD03A19330000210198FFF7BDFF241887
:205C8000361AF4E77C1100207D1200207E1200207D110020F8B5002000AF0E001500012A55
:205CA00026DDD31D6A46DB08DB00D31A9D46080003F0EAFC6C4603230021013040002070D8
:205CC00063705A1ED2B295420BDD3078002808D00136A0549D4203D0E1540233DBB2F0E7E3
:205CE0002A0021000348FFF7ABFF431E9841C0B2BD46F8BDD00D0020F0B50027012687B0E3
:205D00001E4B009102A91E7005000297FFF778FC03AC019009223900200002F018FF09234F
:205D20002370022363709E33E3715A332372029B6671093363806B461B7923710F4B1F703C
:205D4000009B092B07D11A0021002800FFF778FF012007B0F0BD0A4B09221E70094E2100C1
:205D6000280002973780FFF76BFF02A92800FFF747FC034B32881F700349E6E77C110020E2
:205D80007D1200207E1200207D11002070B5CE7892B005000C00022E08D1C9882B48FFF775
:205DA000ABFF431E9841C0B212B070BD00F09AFD210000F067FD002803D0C317181AC00FCC
:205DC000F2E7012E0BD1E2882149112A10DCD2B2002A0DD02800FFF733FF0120E4E7032EEC
:205DE000E2D1A378002B05D1E2881A49032AEEDD0A78EFE7022B05D1A27917492800FFF71B
:205E000049FFD1E7012B02D1A2791449F6E7032BCAD1134B01A91868FFF7EAF9114B03A9FC
:205E20001868FFF7E5F9104B05A91868FFF7E0F90E4B07A91868FFF7DBF900F053FD09A971
:205E400000F030FDA27901A9D8E7C046D00D00202CB700001CB700000CB7000020B700004E
:205E60000CA0800040A0800044A0800048A0800073B5060048780D000B2811D800F04CFD7A
:205E8000061D102E104348704C4F696C097801AA002907D10223117051703000FFF7ACFEC2
:205EA000012076BD0023137053702E4B1B78012B00D1137002230021EFE78A780023012A2D
:205EC00004D101AA13705370274BEFE7254A1370264A93699B0B9B039361E1E78C78012C25
:205EE00006D10021204B01AA1C7011702300D4E7002C08D101201B4B1C4A187093699B0B8D
:205F00009B039361CDE7A9783000FFF72BFCC7E73000FFF73BFFC4E70123154ACBE70B785C
:205F20000020DB06BDD13000FFF7D6FC2A200221AA780F4BFF301A600C4A13681C5C21439B
:205F40004A241954FF34195D2938FF3801431955D4E70123074AAEE78A78064B1A60B7E743
:205F600000209EE7F00D0020F80D00208812002080120020841200203C4BF7B51C7807004A
:205F8000002C5ED13A4E33689B8B1B070ED521002000FFF73FF9326810231100FF31887AD9
:205FA00003438B72334B1C600823938333689A8B520701D504229A83FF331A7AD20620D59E
:205FC00010221A72597930320A435A7160232A4938000A781A4235D1FFF74AFF002834D03A
:205FE000802233685242FF3399790A439A713368FF331A7A520604D540221A72597A0A4394
:206000005A72336800251C8C01239C43E4B20193E9B2002C15D023002B41019A13420DD017
:206020002B00326808335B01D318DA79D20713D4DB799B0710D4019BAB409C430135092D5A
:20604000E6D1F7BDFFF7B2FBC8E720220B4BCDE703681B689847EEE7094BAA00D058002847
:20606000F6D13800FFF7E2FAE5E7C0467D1200208812002080120020BC0F0020FF500041E7
:20608000D40D002010B50248FFF776FF10BDC046D00D0020014A024B1A607047005000415B
:2060A00088120020FA21314B10B51868890000F03DFC2F4B0138984256D82E492E4A486046
:2060C000C020136A00061B021B0A03431362002407238C600B608021136A09061B021B0A4C
:2060E0000B431362FC22254B196A0A431A62FC22196A92010A431A62A022196AD2020A43A0
:206100001A6220000021013400F076F80F2CF8D11B4B1C005A7852B2002AFBDB194A5A8096
:20612000194B1A00597EC9090129FBD0E421C90099803F21D970537EDB09012BFBD0C02324
:2061400000205B011361907000F024F863785BB2002BFBDB0D4B0E4A6380D379DB09012B6B
:20616000FBD04123537010BDFEE7C04684000020FFFFFF0010E000E000ED00E000040040F3
:20618000000C00401E400000004000422140000000480042164A00B51300517EC9090129F5
:2061A000FBD00138042816D81969124A0A400F211A615A788A4300F0AFFB0308060B030096
:2061C000110001220A435A7000BD11000322F9E711000222F6E7F02311691B050B430F2164
:2061E000136153788B43190002230B435370EBE700400042FFFFFFF0182330B51D000400C1
:2062000045430820204A55192856013014D0032912D808006343D156D31800F07DFB0228FB
:206220000E1B5868CB010221184A9B181A1840321170012282405A6030BD5868CB0106210D
:20624000124A9B181A1840321170012282405A609A61F1E75868CB0106210C4A9B181A18AA
:2062600040321170012282405A605A61E4E75868CB010221054A9B181A184032117001220D
:2062800082409A60D8E7C04640B70000004400411823F0B508245843114A13181C5701342C
:2062A0001BD0012635005F688356BD400D4ADB019A18906828420BD10C00601E8441D2199D
:2062C0004032107834400336A400B04320431070044A9B18002901D15D61F0BD9D61FCE755
:2062E00040B7000000440041F8B50300182058432A4A1018007A40B20400013013D0481C1B
:2063000000240C280FD800F007FB451C1C1C1C1C1C1C1C0707070700092906D100211800C9
:20632000FFF76AFF00242000F8BD0A2901D10839F5E700240B29F6D10A391800FFF75CFF18
:20634000F1E718204343D018466801253400D2561348D20112187308D31830332C40187872
:20636000002C0BD00F24090120400143C9B292191970403213781D431570D3E70F27B843B9
:2063800001439219C9B21970130040331A7815431D70C8E701246442C5E7C04640B70000EA
:2063A00000440041002303600A68436002604A68836042608A6882600B604B608B60704798
:2063C00010B50400006802F08BFB200010BD10B504000068002801D002F082FB00232360E8
:2063E000A360636010BD70B504000D000068013103F0CEF8031E01D0012028C470BD0368EA
:2064000010B50400002B04D043688B4201D3012010BD2000FFF7E7FF0028F9D0A368002B57
:20642000F5D122681370F2E770B50E00110004001500FFF7E4FF002804D12000FFF7C7FFA1
:20644000200070BDA5603100206803F004F9F7E7002370B504000D00036043608360994246
:2064600007D0080003F010F9290002002000FFF7DBFF200070BD70B504000D1E09D00800A4
:2064800003F002F9290002002000FFF7CDFF200070BDFFF79CFFFAE7F8B504000F1E02D191
:2064A00000263000F8BD0126002AFAD08368D5182900FFF7A4FF0028F2D02368A268390064
:2064C000981803F0C8F8A560EBE770B505000C00081E06D003F0D8F8210002002800FFF74C
:2064E000DBFF70BD07B5002201AB19705A7019000132FFF7D1FF0EBD13B50A2204000800DB
:2065000001A900F0A7F901A803F0BEF801A902002000FFF7C1FF16BD10B582688C680023D4
:20652000A2420CD30068984209D00968994206D0121B801803F085F843424341DBB2180078
:2065400010BDF7B515008A680F00002A1BD08368002B18D09A4216D8AB4200D85D1E066821
:2065600001243000731964420193019B98420CD8396803F0B6F8002807D0831B9D4200D315
:206580001C000130F1E7012464422000FEBDF0B5836887B005000F0016000393002B43D06B
:2065A0008B680493002B3FD09368049A04689B1A01930CD12000396803F093F8041E33D088
:2065C000B268316802F0A8FAB368E418F2E7019B002B2BDA02943968200003F082F8039061
:2065E00000281DD0031B1A0021000298049302F093FA049A029B944663441C00B268180073
:20660000316802F089FABA68B3689446E3180293039B019A63441C00AB689B18AB60DAE737
:206620002100029803F017F807B0F0BD0B680593039B05992000029303F053F8002806D001
:20664000019A049B9446C418029B6344F1E7029B039A9342E8D06A68934205D919002800A1
:20666000FFF7C1FE0028DFD0AB685A1E002ADBDB39002800FFF765FF041ED5DBBB68C21899
:206680002B689918AB689A1A019BC81802F04DFAAA68019B29689B180022AB60CA542B686A
:2066A000B2681819316802F037FA621EDEE7F8B507680600002F22D08468002C1FD03D0007
:2066C000287802F0E9F9002801D00135F8E7013C3C19207802F0E0F9002803D0A54201D888
:2066E000013CF6E70134621BB260BD4203D92900380002F011FA00213268B368D154F8BDD3
:20670000036810B5181E01D002F08EF910BD000010B50248FEF7ECFB10BDC0468C1300207F
:2067200010B50248FEF7E4FB10BDC046481400207FB519491948FDF74BFF19491948FDF73B
:2067400047FF194C19492000FDF742FF18491948FDF73EFF18491948FDF73AFF184E19492D
:206760003000FDF735FF012503233100019500930D220B331448FEF763FB1D230393013BED
:2067800002931A3B0193009518331B2221000F48FEF71EFB7FBDC046000800420415002013
:2067A000000C0042081500200C15002000100042001400421015002000180042141500207D
:2067C00018150020001C00428C13002048140020F0B58DB00E1E00922DD01300023B222B99
:2067E00033D80A2A33D1002831DA01234442019303AF0EE02000009900F01EF920000D0058
:20680000009900F093F80400092D17D830353D7001373A00002CEDD103ABBB42EAD00199CE
:206820003300002902D02D21731C317003A98A4206D800221A7030000DB0F0BD5735E6E7B7
:20684000013A117819700133F0E70026F3E704000023CCE710B5FFF7BBFF10BD70B50E0091
:2068600000254468002C0BD0236831005B6820009847002802DB2D18E468F3E701256D427D
:20688000280070BD70B50D004468002C08D0236829009B6820009847002802D1E468F4E7E9
:2068A000200070BD70B50D004468002C07D0236829002000DB689847E4682D18F5E72C70AB
:2068C00070BD70B50D004468002C08D0236829001B6820009847002802D1E468F4E7200031
:2068E00070BD00000121064A10B5136805480B4005D102240470241944704360116010BDDF
:206900001C150020201500200B0010B50100180002F090F810BD000002B47146490849009A
:20692000095C49008E4402BC7047C046002243088B4274D303098B425FD3030A8B4244D3DF
